:020000040800F2
:10000000D807002005010008DD2A0008EF1A0008C3
:10001000D92A0008E10F0008073E00080000000090
:10002000000000000000000000000000E1350008B2
:100030000112000800000000D53200081D01000870
:100040001F0100081F0100081F0100081F01000810
:100050001F0100081F0100081F0100081F01000800
:100060001F0100081F0100081F0100081F010008F0
:100070001F0100081F0100081F0100081F010008E0
:100080001F0100081F0100081F0100081F010008D0
:100090001F0100081F0100081F0100081F010008C0
:1000A0001F0100081F0100081F0100081F010008B0
:1000B000553700081F010008953700081F01000888
:1000C0001F0100081F0100081F0100081F01000890
:1000D0001F010008653B0008ED3B00081F010008F8
:1000E0001F0100081F0100081F010008DFF810D0E1
:1000F00000F0F8FC004800479D4D0008AFF3008079
:10010000D80700200648804706480047FEE7FEE77C
:10011000FEE7FEE7FEE7FEE7FEE7FEE7FEE7FEE7B7
:10012000F5360008ED00000840EA01039B0703D004
:1001300009E008C9121F08C0042AFAD203E011F826
:10014000013B00F8013B521EF9D27047D2B201E0E8
:1001500000F8012B491EFBD270470022F6E710B5CC
:1001600013460A4604461946FFF7F0FF204610BD25
:10017000421E12F8013F002BFBD111F8013B02F89F
:10018000013B002BF9D1704730B505462A460B4696
:1001900012F8010B13F8014B08B1A042F8D01CB1C2
:1001A000002802D06D1CF1E7284630BDCAB2401EBF
:1001B00010F8011F8A4202D00029F9D100207047AF
:1001C000421C10F8011B0029FBD1801A704710B5A2
:1001D000044600E0401C0378002BFBD100E0401CEB
:1001E000521E04D311F8013B0370002BF7D10021FC
:1001F0000170204610BD034611F8012B00F8012BB9
:10020000002AF9D11846704770B5064603F072FF10
:10021000046805460A220021304600F03FFB2C60AE
:1002200070BDF0B480EA0102D40F4200B2EB410F7E
:1002300002D20246084611464A0042D0C30DDDB242
:10024000C1F3C752AD1A202D35DAC1F3160141F4BE
:10025000000204B15242C5F1200602FA06F12A4119
:100260001044B3EBD05F23D0C4B1012DA0EBC35039
:1002700009DCF0BC4FF0004202EAC352DBB200F5E9
:10028000000000F04CBB400000F1807000EBC35058
:10029000A0F1807040EAD170490009E0490841EAC4
:1002A000C071A0EBC35000F50000400800EBC35044
:1002B000F0BC00F02BBB6142012202EB4101001BAC
:1002C000F6E7F0BC704781F00041AAE780F00040FB
:1002D000A7E780EA010210B502F00043400022D0F7
:1002E0004A001FD0010E01EB1261C0F35600C2F3A9
:1002F000560240F4000042F40002A0FB0220000479
:100300007F39140400D0401C50EA124001D4400050
:10031000491EC2B20C0604EBD010401C4008802AD3
:1003200002D003E0002010BD20F00100002900DA17
:100330000020184310BD30B480EA010202F00045ED
:1003400030F0004221F0004013D090B1C30DD40D25
:10035000C2F31601C0F31600E41A41F4000140F4A0
:1003600000027D34914201D3641C00E04900002C5E
:1003700002DA30BC002070474FF4000000239142A5
:1003800001D3891A034340084FEA4101F7D151B123
:10039000914202D14FF0004105E002D24FF001013D
:1003A00001E06FF0010103EBC450284430BC00F0C1
:1003B000ADBA2DE9FE4F804681EA0300C00F0C461E
:1003C000009021F0004123F00045B8EB0200A94164
:1003D00005D24046214690461C460B46024623F075
:1003E0000040104347D0270DC7F30A00C3F30A515A
:1003F0000290401A019040286BDAC3F3130040F4D6
:10040000801B0098924620B10023D2EB030A63EBD5
:100410000B0B01985946C0F14002504600F00DFA0E
:1004200006460D4650465946019A00F025FA10EB53
:1004300008006141002487EA115284EAE7731A43F5
:1004400040D0009A62B3019A012A4FEA075215DCA4
:10045000001B61EB02014FF0004202EA0752CDE9B6
:100460000042001C41F5801132462B4600F094FA00
:1004700003B0BDE8F08F40462146F9E7001B61EB71
:100480000201001C41F5801300185B412018A2F501
:10049000001747EB030140EAD570B6196D4111E032
:1004A0006D084FEA360645EAC0754FEA0752001B51
:1004B00061EB0201001C41F5801149084FEA300050
:1004C0000019514132462B4603B0BDE8F04F00F011
:1004D00054BA0098012240000023D0EB020263EBE3
:1004E000E073009821464FEAE074B8EB000061EB3E
:1004F0000401E9E783F000435BE781F0004158E73E
:100500002DE9FE4F81EA030404F0004421F000418C
:1005100000944FF0000B23F0004350EA01045ED03A
:1005200052EA03045BD0C3F30A54C1F30A552C44C6
:10053000A4F2F3340194A0FB0254C1F3130141F47B
:100540008011C3F3130343F4801301FB024400FB47
:10055000034E840A970A44EA815447EA8357A4FB6E
:10056000076802958D0A05FB07854FEA932C04FB6B
:100570000C542705029D4FEA065847EA1637B5EB9B
:1005800008056EEB070C870E920E47EA811742EAC8
:100590008312A7FB0201B6EB0B0164EB00042B0DE9
:1005A00043EA0C335E1844EB1C50DA465146E7FB35
:1005B0000201C5F313044FEA0B3343EA14534FEA25
:1005C0000432019C43EA0603A4F10C040294009C4B
:1005D000CDE900B400F0E0F903B0BDE8F08F0020F1
:1005E0000146F9E72DE9F04D81EA030404F0004BE0
:1005F00021F0004514464FF0000A23F0004150EA74
:10060000050220D054EA01021DD0C5F30A57024664
:10061000C5F31303C1F31300C1F30A5640F4801568
:1006200043F48013A7EB0608101BD64608F2FD38EA
:1006300073EB050002D308F1010801E092185B4159
:10064000B8F1000F03DA00200146BDE8F08D00206C
:100650004FF48011064684460EE0171B73EB050726
:1006600005D3121B63EB050306434CEA010C490852
:100670004FEA300092185B4150EA0107EDD152EA8F
:10068000030012D082EA040083EA0501084305D082
:10069000101BAB4106D20122002306E000224FF0DE
:1006A000004302E06FF0010253101AEB06004CEB1E
:1006B000085110EB0A0041EB0B01BDE8F04D00F0D2
:1006C0005CB9C10F80EAE0700844CA079623002194
:1006D00000F025B996230022114600F020B900F061
:1006E000004220F00040C10DC0F3160040F40000AD
:1006F0007F2901DA00207047962903DCC1F19601B9
:10070000C84001E096398840002AF4D04042704742
:1007100070B5C1F30A5201F000450024C1F3130182
:1007200040F2FF3341F480119A4201DA002070BD9B
:1007300040F233439A42A2F2334203DC524200F0C9
:100740008BF800E090402C43F1D0404270BD00F0A7
:10075000004230F000400AD0C10D01F56071C0F3D5
:10076000160042EA0151C2084007114370470020B9
:100770000146704701F0004330B421F0004150EAD7
:10078000010206D00A0DA2F56072C1F31301002A1E
:1007900002DC30BC00207047440F44EAC104C100B1
:1007A000E01830BC00EBC25000F0B0B830B50B46DA
:1007B000014600202022012409E021FA02F59D4291
:1007C00005D303FA02F5491B04FA02F52844151E65
:1007D000A2F10102F1DC30BD2DE9F05F05460020F9
:1007E00092469B4688460646814640241BE02846A2
:1007F00041464746224600F02FF853465A46C01A53
:10080000914110D311461846224600F016F82D1AD1
:1008100067EB01084F4622460120002100F00DF849
:1008200017EB00094E41201EA4F10104DFDC48460D
:1008300031462A464346BDE8F09F202A04DB203A91
:1008400000FA02F1002070479140C2F1200320FA23
:1008500003F3194390407047202A04DB203A21FA21
:1008600002F00021704721FA02F3D040C2F12002C9
:100870009140084319467047202A06DBCB17203ADF
:1008800041FA02F043EAE07306E041FA02F3D04095
:10089000C2F1200291400843194670472DE9F04704
:1008A00091460F4680460446002614F8015B2DB1A0
:1008B00000F02AF90068405DC007F6D12B2D02D068
:1008C0002D2D18D0641E4A463946204600F020F9E6
:1008D00027B13968A14201D1C7F8008071054FF0F6
:1008E00002040BD54042002803DD03F003FC046042
:1008F000A007BDE8F08746F48066E4E70028F8DA50
:1009000003F0F8FB04606FF00040F2E70029A8BF95
:100910007047401C490008BF20F00100704710B428
:10092000B0FA80FC00FA0CF050EA010404BF10BCDD
:10093000704749B1CCF1200421FA04F411FA0CF10A
:1009400018BF012121430843A3EB0C01CB1D4FEA43
:1009500000614FEA102042BF002010BC704700EB3E
:10096000C35010440029A4BF10BC7047401C49006C
:1009700008BF20F0010010BC704710B5141E73F1C1
:10098000000408DA401C41F1000192185B411A434F
:1009900001D120F0010010BD2DE9F04D92469B469B
:1009A00011B1B1FA81F202E0B0FA80F22032904641
:1009B000FFF743FF04460F4640EA0A0041EA0B01F5
:1009C00053465A46084313D0114653EA010019D042
:1009D000C8F140025046FFF73FFF05460E4650461D
:1009E00059464246FFF729FF084305D0012004E09D
:1009F00020463946BDE8F08D0020054346EAE07602
:100A00002C4337430A986305E40AA0EB0800002250
:100A1000FD0A44EA47540A3002D500200146E9E7BE
:100A2000010510196941DDE9084500196941BDE872
:100A3000F04DA2E770B521F0004303430CD0C1F3A1
:100A40000A550024D5EB040564EB0403D617AD1A50
:100A5000B34102DB0020014670BD201841EB02517A
:100A600070BD0EB5C10F80EAE0700844CA070021CE
:100A700040F233438DE80E000A460B46FFF78CFF29
:100A800003B000BDC1F30A52C1F3130140F2FF33BA
:100A900041F480119A4202DA00200146704740F288
:100AA00033439A42A2F2334202DC5242FFF7D4BEF1
:100AB000FFF7C3BE30B5041E71F1000404DB4FF034
:100AC0000044404264EB0101141E73F1000405DB95
:100AD0001C464FF00043524263EB0403994208BFA7
:100AE000904230BD064C074D06E0E06840F001033F
:100AF00094E8070098471034AC42F6D3FFF7FAFAAF
:100B0000186E0008386E000800487047146E000820
:100B10002DE9F05F82460078002715468B460AF1E2
:100B20000104B946302801D09DB113E014F8010B3F
:100B30000127782803D0582801D045B10AE00DB12B
:100B4000102D07D10027102514F8010B02E008250D
:100B500000E00A250026B0460EE005FB080005FB74
:100B600006F1012701EB10461FFA80F8B6F5803F29
:100B700000D3B94614F8010B294600F069F80028A3
:100B8000EBDABBF1000F05D00FB1641E00E0544654
:100B9000CBF80040B9F1000F06D003F0ABFA022108
:100BA0000160C81EBDE8F09F48EA0640FAE72DE95B
:100BB000F04D00231A461B1A8A4103DB0020014630
:100BC000BDE8F08DC1F30A52C1F3130141F4801561
:100BD0004FF0000BD10702D100186D41521E0027C3
:100BE000044640F2FF11384601EB620A3E46804659
:100BF000024600204FF48011FFF72EFEC21971410A
:100C0000BB1846EB0100B4EB030C75EB000C04D3EE
:100C1000E41A65EB000517460E46241908F1010099
:100C20006D4180463428E3DDF91946EB0600091BC7
:100C3000A84103D24FF0FF32134601E000221346D1
:100C40001BEB070046EB0A51BDE8F04DFFF795BEE0
:100C50003A2800D2303820F02002412A01D3A2F1F4
:100C60003700884201D34FF0FF30704721B18268CE
:100C700042F00102826003E0826822F00102826099
:100C8000704721B1826842F48072826003E082681A
:100C900022F4807282607047014600208A6802F068
:100CA00004020AB1012000E0002070470146002044
:100CB0008A6802F008020AB1012000E000207047B3
:100CC00030B502460020002350680F4C20400D79BB
:100CD0000C6844EA05242043506090680B4C204087
:100CE000D1E902542C434D7944EA450420439060F5
:100CF000D06A20F470000C7C641EE4B2234340EA06
:100D00000350D06230BD0000FFFEF0FFFDF7F1FFA1
:100D1000F0B504460D4600200021092D11DDE068E4
:100D2000A5F10A0606EB4607072606FA07F18843EF
:100D3000A5F10A0606EB460603FA06F10843E06051
:100D40000CE0206905EB4507072606FA07F1884302
:100D500005EB450603FA06F108432061072A0FDA7E
:100D6000606B561E06EB86071F2606FA07F18843BE
:100D7000561E06EB860605FA06F10843606322E07C
:100D80000D2A0FDA206BD61F06EB86071F2606FA00
:100D900007F18843D61F06EB860605FA06F10843DD
:100DA000206310E0E06AA2F10D0606EB86071F261D
:100DB00006FA07F18843A2F10D0606EB860605FA4E
:100DC00006F10843E062F0BD816841F008018160EE
:100DD000704721B1826842F4A002826003E0826819
:100DE00022F4A00282607047816841F004018160B2
:100DF0007047000008B50121042002F0A9FA032081
:100E0000ADF8000000208DF803006946014800F0AD
:100E100036FB08BD0008014010B5FFF7EBFF00F0FE
:100E200001F810BD00B591B00121084602F060FA4A
:100E30000121480202F08CFA364800F01DF93648CC
:100E40000690364807900020089002200990002064
:100E50000A9080200B9040000C9080000D90202084
:100E60000E9000020F900020109006A9294800F073
:100E7000A9F90121274800F0F3F800200190012092
:100E80008DF808008DF809004FF4602003900020D1
:100E9000049002208DF8140001A91F484C38FFF778
:100EA0000FFF4FF4404002F017FA05230122002102
:100EB00019484C38FFF72CFF052302220121164860
:100EC0004C38FFF725FF012113484C38FFF7D9FEB6
:100ED000012111484C38FFF7C9FE0F484C38FFF785
:100EE00073FF00BF0C484C38FFF7E0FE0028F9D133
:100EF00009484C38FFF778FF00BF07484C38FFF728
:100F0000CBFE0028F9D1012103484C38FFF761FFDF
:100F100011B000BD080002404C2401406E000020CA
:100F200008B50121042002F013FA4FF40060ADF877
:100F3000000010208DF8030003208DF802006946A0
:100F4000034800F09CFA01200249086008BD000037
:100F500000080140AC01214210B5044603F0D0FE68
:100F6000462003F0A3FE03F0F3FE012800D110BDDC
:100F7000204603F09BFE03F0EBFE012801D1022086
:100F8000F5E703F0D5FE0020F1E710B500F0BCFE58
:100F900000F004F81020FFF7DFFF10BD10B50120AE
:100FA000FFF7DAFF10BD10B5002403F0A9FE4720BB
:100FB00003F07CFE03F0CCFE012801D1002010BD1F
:100FC00003F052FE044603F023FE03F04DFE00EB57
:100FD000042084B203F034FE03F0AAFE2046EEE7BC
:100FE00000BFFEE710B50021014802F0EDFB10BD87
:100FF0000008004008B50121042002F0A9F91020E2
:10100000ADF800008DF8030003208DF8020069465A
:10101000034800F034FA1021014800F0C6FA08BD78
:101020000008014008B51020ADF8000048208DF8F8
:1010300003006946014800F022FA08BD000801409B
:1010400008B51020ADF800008DF8030003208DF8DE
:1010500002006946014800F012FA08BD000801408C
:1010600021B1026842F00102026004E002684FF61A
:10107000FE731A400260704701684FF6FE7211401D
:1010800001600021016041608160C1604B4988427C
:1010900008D14A490839496841F00F01474A083ADE
:1010A00051608AE045491431884208D143490839E2
:1010B000496841F0F001414A083A51607DE03F49FA
:1010C0002831884208D13D490839496841F47061A6
:1010D0003A4A083A516070E038493C31884208D1B8
:1010E00036490839496841F47041344A083A516038
:1010F00063E032495031884208D1304908394968A3
:1011000041F470212D4A083A516056E02B49643170
:10111000884208D129490839496841F47001274AB1
:10112000083A516049E025497831884208D123497D
:101130000839496841F07061204A083A51603CE042
:101140001F49884206D1011F096841F00F01021FA3
:10115000116032E01A491431884208D11849091F38
:10116000096841F0F001164A121F116025E0144988
:101170002831884208D11249091F096841F4706179
:101180000F4A121F116018E00D493C31884208D106
:101190000B49091F096841F47041094A121F116087
:1011A0000BE007495031884207D10549091F0968FA
:1011B00041F47021024A121F11607047080002407A
:1011C0000804024010B50022026847F6F0739A4303
:1011D0000C6A8B6823430C6923434C6923438C6955
:1011E0002343CC6923434C6A23438C6A23431A4329
:1011F0000260CB6843600B6883604B68C36010BDBE
:101200007047000010B580210348FEF7A6FF0020BC
:101210000249088010BD0000580100205A0000203B
:1012200070B50546002400BF00F0D2F880B90DA1CA
:101230000E48FEF7A9FF044654B13A212046FEF7B6
:10124000B5FF044614B1641C204670BD0020FCE7C5
:10125000052003F04BFC281EA5F101018DB2E3D15E
:1012600000BFF2E74950442C000000005801002064
:1012700008B50121082002F06BF810208DF803005A
:101280000220ADF8000003208DF8020069461548E1
:1012900000F0F5F800220221124800F088F9FA2047
:1012A00003F024FC012202210E4800F080F94FF4E3
:1012B000FA7003F01BFCFFF7A5FF02F065FE0AA021
:1012C00002F0E0FE03E04FF4FA7003F00FFCC822D6
:1012D00008A10AA000F032F80028F4D112A002F010
:1012E000D1FE08BD000C01404349505354415254B3
:1012F0000D0A0000434F4E4E4543540041542B43CA
:10130000495053544152543D22544350222C2231CF
:1013100038332E3233302E34302E3339222C3630BF
:1013200030320D0A00000000455350383236362066
:10133000496E6974204F4B0D0A0000002DE9F04101
:1013400005460E4614462846FEF73AFF87B2394650
:10135000284602F001FE0FE000F03AF848B93146A5
:101360000948FEF711FF20B1FFF74CFF0020BDE850
:10137000F0810A2003F0BAFB201EA4F101018CB217
:10138000EAD10120F3E700005801002030B589B010
:1013900005460C46FFF736FF224608A101A802F0D9
:1013A00081FEC82209A101A8FFF7C8FF18B921468C
:1013B000284602F0D1FD09B030BD000041542B4356
:1013C000495053454E443D25640D0A003E0000003F
:1013D0000A48008808B90120704708480088084971
:1013E0000988884203D1002004490880F4E70348B3
:1013F0000088034908800120EEE700005A00002021
:101400005C00002010B500F029F800F001F810BDD4
:101410000EB50121084601F07BFF40F2E730ADF840
:1014200004004720ADF800000020ADF80600ADF83C
:1014300002008DF8080069464FF0804002F040FB42
:101440000121880702F0BAF901221146900702F043
:10145000CFFA0121880702F0B7F90EBD08B51C20AC
:101460008DF8000000208DF8010003208DF80200A7
:1014700001208DF80300684601F032FB08BD2DE91C
:10148000F04102460025002600200023002400270A
:1014900091F803C00CF00F0591F803C00CF0100C8C
:1014A000BCF1000F03D091F802C04CEA050591F899
:1014B00000C0BCF1000F31D0146800202BE04FF0C9
:1014C000010C0CFA00F3B1F800C00CEA03069E42CE
:1014D00020D183004FF00F0C0CFA03F7BC4305FA40
:1014E00003FC4CEA040491F803C0BCF1280F06D1B8
:1014F0004FF0010C0CFA00FCC2F814C00AE091F89D
:1015000003C0BCF1480F05D14FF0010C0CFA00FCF0
:10151000C2F810C0401C0828D1D31460B1F800C034
:10152000BCF1FF0F34DD546800202EE000F1080C00
:101530004FF0010808FA0CF3B1F800C00CEA0306FA
:101540009E4221D183004FF00F0C0CFA03F7BC43ED
:1015500005FA03FC4CEA040491F803C0BCF1280F1F
:1015600005D100F1080C08FA0CF8C2F8148091F8C3
:1015700003C0BCF1480F07D100F1080C4FF001087F
:1015800008FA0CF8C2F81080401C0828CED354602A
:10159000BDE8F0810246002093680B400BB10120AA
:1015A00000E00020704741617047016170470AB157
:1015B000016100E0416170472DE9F84305460E46A0
:1015C00017469846089C33463A46314628460094CA
:1015D00000F020FA43462A4631462846009400F09F
:1015E00019FA43463A4641462846009400F012FA5A
:1015F00043463A4631463846009400F00BFABDE8BF
:10160000F883000010B500BF094800884FF47A71D4
:1016100000FB01F4074802F0D7F904440020054913
:1016200024310880322003F061FA204610BD00000A
:10163000720000200008004070B500240A25002632
:1016400007E0074800880444052003F04FFA701CA7
:10165000C6B2AE42F5DBB4FBF5F080B270BD00005F
:101660006E00002070B500240A25002607E0074818
:1016700040880444052003F039FA701CC6B2AE421B
:10168000F5DBB4FBF5F080B270BD00006E00002009
:101690002DE9F84F0746884693469A46DDF828908C
:1016A0000097B3E099F8000080283DDA99F80060CF
:1016B0000D2E05D1009F08F110001FFA80F830E0D0
:1016C000202E03DDA6F1200086B200E000260024D3
:1016D00022E000251CE004EB06105049085C802144
:1016E0002941084040B108EB040291B27A1990B246
:1016F0005A4600F0ECF909E0D34507D008EB0402A4
:1017000091B27A1990B2524600F0E1F9681CC5B264
:10171000082DE0DB601CC4B2102CDADB07F10800F6
:1017200087B209F1010971E0002668E006EB0610B6
:101730003B4911F8100099F8001088425DD106EB82
:101740000610374901EB4000407899F801108842B3
:1017500053D100244FE0002520E006EB061030496D
:1017600001EB4000801C10F814108020284101403B
:1017700041B108EB040291B27A1990B25A4600F0D6
:10178000A6F909E0D34507D008EB040291B27A1913
:1017900090B2524600F09BF9681CC5B2082DDCDB04
:1017A000002524E006EB06101D4901EB4000801CDB
:1017B000012101EB4401405C80212941084048B1EE
:1017C00008EB040291B27A19083290B25A4600F03E
:1017D0007EF90AE0D34508D008EB040291B27A19E9
:1017E000083290B2524600F072F9681CC5B2082D5A
:1017F000D8DB601CC4B2102CADDB701C86B2292E65
:1018000094DB09F1020907F1100087B299F8000092
:1018100000287FF447AFBDE8F88F00007C5A00082D
:10182000EE6700082DE9F05F0646884693469A4623
:10183000DDF82890E2E099F80000802835DA99F880
:101840000070202F03DDA7F1200087B200E0002701
:10185000002522E000241CE005EB07106B49095C21
:1018600080202041014041B108EB050291B23219BC
:1018700090B25A4600F02BF909E0D34507D008EBA7
:10188000050291B2321990B2524600F020F9601C64
:10189000C4B2082CE0DB681CC5B2102DDADB09F1FC
:1018A000010906F1080086B2A8E000279EE007EBD8
:1018B000870000EB4710564911F8100099F8001006
:1018C00088427CD107EB870000EB4710504901EBC1
:1018D0004000407899F801108842F2D1002580E05C
:1018E000002423E007EB870000EB4710484901EB99
:1018F0004000801C05EB4501405C802121410840EF
:1019000040B108EB050291B2321990B25A4600F08C
:10191000DEF809E0D34507D008EB050291B2321991
:1019200090B2524600F0D3F8601CC4B2082CD9DB48
:10193000002426E007EB870000EB4710344901EB59
:101940004000801C05EB4501491C405C8021214181
:10195000084048B108EB050291B23219083290B242
:101960005A4600F0B4F80AE0D34508D008EB050267
:1019700091B23219083290B2524600F0A8F8601CB9
:10198000C4B2082CD6DB002427E007EB870000EB6D
:1019900047101F4901EB4000801C05EB4501891CE5
:1019A000405C80212141084050B108EB050291B212
:1019B0003219103290B25A4600F089F80BE013E069
:1019C000D34508D008EB050291B23219103290B21B
:1019D000524600F07CF8601CC4B2082CD5DB681CB1
:1019E000C5B2182DFFF67CAF781C87B2192FFFF611
:1019F0005EAF09F1020906F1180086B299F80000FD
:101A000000287FF418AFBDE8F09F00007C5A000862
:101A1000B66C00082DE9FF4F83B0804689464946E1
:101A2000404600F011FB0598A0EB08050698A0EBD6
:101A30000906002D02DB0120029003E04FF0FF3089
:101A400002906D42002E02DB0120019003E04FF076
:101A5000FF30019076424FEA450A4FEA460BB54205
:101A600019DDABEB0504002712E049464046109A09
:101A700000F02DF8002C05DBA4EB0A040198484483
:101A80001FFA80F95C44029840441FFA80F87F1CDA
:101A9000AF42EADD18E0AAEB0604002712E049464F
:101AA0004046109A00F013F8002C05DBA4EB0B0461
:101AB000029840441FFA80F85444019848441FFAA1
:101AC00080F97F1CB742EADD07B0BDE8F08F70B542
:101AD00004460D461646681C83B2601C82B2294635
:101AE000204600F086FA304600F0CCFA70BD00BF08
:101AF000FEE7000008B54FF4A06001F029F802F0FD
:101B0000D3FF00F05DF94EF67D7000F029F91EA0BC
:101B10004EF67D731F220A2100900320FFF7B8FDC7
:101B20004FF4E13002F072F94FF4E13002F0BEF907
:101B300000F0D4FA01F042FD00F096F8FFF76CF9DE
:101B4000FFF758FAFFF721FA00F0F6F8FFF7E8F987
:101B500001F086FB0021104801F0ADFF0FA04EF60A
:101B60007D734FF478421E2100900420FFF790FD12
:101B70000EA04EF67D734FF478423221009004207F
:101B8000FFF786FD08BD0000CFB5CDB3D5FDD4DA93
:101B9000B3F5CABCBBAF000000040040C9E8B1B84F
:101BA000B3F5CABCBBAFCDEAB3C90000D5FDD4DAEA
:101BB000C1ACBDD3CDF8C2E7A1A3A1A3A1A30000EE
:101BC0002DE9F84F4FF0000A0024A346A14631E06A
:101BD000012021490860142002F0AEFF00201F49B7
:101BE000C1F89C0100BF1C48843800680028FAD066
:101BF00001F004FB641C00BF17488438006801280A
:101C0000FAD0FFF7EFF9FFF7FDFC82465046FEF7EA
:101C100061FD0090FEF79BFD07460022104BFEF78A
:101C2000E1FC0546FEF7A6FD834649465846FEF709
:101C3000F8FA8146052CCBD14846FEF788FD0746C9
:101C40000022084BFEF7CEFC0546FEF793FD8346C7
:101C50005846BDE8F88F00009C0121420000214257
:101C600000004D40000014401FB50121082001F084
:101C70006FFB8020ADF8000003208DF802001020DB
:101C80008DF8030069461E48FFF7F9FB80211C48C8
:101C9000FFF789FC4020ADF8000004208DF8030018
:101CA00069461748FFF7EBFB40211548FFF77BFC1F
:101CB0000121042001F02CFB4FF0804001F090FD49
:101CC00040F2E730ADF808004720ADF804000020EE
:101CD000ADF80A00ADF8060001A90A4801F0F0FECF
:101CE0000121084801F06AFD01221146054801F072
:101CF0007FFE02F07DFF0021024801F065FD1FBD5F
:101D0000000801400008004008B50121082001F04A
:101D10001FFBC020ADF8000003208DF80200142046
:101D20008DF8030069460348FFF7A9FB03F000F8AC
:101D300008BD0000000C014008B50121042001F09D
:101D400007FB4FF48070ADF8000048208DF80300C9
:101D500069460248FFF793FB08BD000000080140F8
:101D600070B506467F231A460021084600F041F967
:101D70002C2000F09FF9002408E0002503E0304605
:101D800000F080F96D1C802DF9D3641C802CF4D3F5
:101D900070BD000008B50121082001F0D9FA4FF408
:101DA0007040ADF8000003208DF8020010208DF87F
:101DB000030069460148FFF762FB08BD000C0140C3
:101DC00010B5FFF7E7FF00F00CF9112000F072F9F1
:101DD000782002F08BFEB12000F06CF9012000F0B9
:101DE0003DF92C2000F03AF92D2000F037F9B2200F
:101DF00000F060F9012000F031F92C2000F02EF9FC
:101E00002D2000F02BF9B32000F054F9012000F050
:101E100025F92C2000F022F92D2000F01FF90120D7
:101E200000F01CF92C2000F019F92D2000F016F913
:101E3000B42000F03FF9072000F010F9C02000F0B6
:101E400039F9A22000F00AF9022000F007F98420F5
:101E500000F004F9C12000F02DF9C52000F0FEF8D3
:101E6000C22000F027F90A2000F0F8F8002000F066
:101E7000F5F8C32000F01EF98A2000F0EFF82A20C0
:101E800000F0ECF8C42000F015F98A2000F0E6F824
:101E9000EE2000F0E3F8C52000F00CF90E2000F071
:101EA000DDF8362000F006F9C82000F0D7F8E02071
:101EB00000F000F90F2000F0D1F81A2000F0CEF861
:101EC0000F2000F0CBF8182000F0C8F82F2000F009
:101ED000C5F8282000F0C2F8202000F0BFF822202A
:101EE00000F0BCF81F2000F0B9F81B2000F0B6F895
:101EF000232000F0B3F8372000F0B0F8002000F005
:101F0000ADF8072000F0AAF8022000F0A7F8102092
:101F100000F0A4F8E12000F0CDF80F2000F09EF8CA
:101F20001B2000F09BF80F2000F098F8172000F01D
:101F300095F8332000F092F82C2000F08FF829203B
:101F400000F08CF82E2000F089F8302000F086F8A0
:101F5000302000F083F8392000F080F83F2000F0B6
:101F60007DF8002000F07AF8072000F077F80320D1
:101F700000F074F8102000F071F82A2000F09AF8B0
:101F8000002000F06BF8002000F068F8002000F05E
:101F900065F87F2000F062F82B2000F08BF800201D
:101FA00000F05CF8002000F059F8002000F056F82E
:101FB0009F2000F053F8F02000F07CF8012000F0A2
:101FC0004DF8F62000F076F8002000F047F83A20AF
:101FD00000F070F8052000F041F8292000F06AF8C0
:101FE00010BD10B5642002F081FD322002F07EFDAC
:101FF00010BDF0B504460D4616461F462A2000F0D7
:1020000059F8002000F02AF8A11CC8B200F026F808
:10201000002000F023F8B11CC8B200F01FF82B20FC
:1020200000F048F8002000F019F8E91CC8B200F0F0
:1020300015F8002000F012F8F91CC8B200F00EF8F4
:102040002C2000F037F8F0BD30B504460D462B4685
:10205000224629462046FFF7CCFF30BD10B5044686
:102060004FF48040064908604000091F0860204680
:1020700001F078FA4FF480400149091F086010BD53
:10208000140C014010B504464FF480400849086024
:102090004000091F0860201201F064FAE0B201F06C
:1020A00061FA4FF480400249091F086010BD00002A
:1020B000140C014010B504464FF4804006490860F6
:1020C00040000860204601F04DFA4FF4804002497C
:1020D000091F086010BD0000140C014008B5012163
:1020E000102001F035F94FF40050ADF80000102039
:1020F0008DF8030003208DF8020069460448FFF7BD
:10210000BEF94FF400510248FFF74FFA08BD000036
:102110000010014070B5FEF746FF0646FEF7DAFAFA
:1021200005460449FEF707F904464FF07E51FEF7D5
:10213000D0F870BDCDCC8C3F2DE9FE4FFFF77CFA77
:102140000746FEF7C7FA06463549FEF7C2F80546C8
:102150004FF08B41FEF7EFF804462046FEF7F7FA02
:102160000746304A304BFEF724F9824600222F4BB7
:10217000FEF7C6F90546FEF7CBFA0090FEF7A1FA86
:102180002B490190FEF7D7F8044621462448FEF774
:102190009AF883462146FEF7CEF88246FEF7D7FA34
:1021A00007464FF06632234BFEF7AAF90546FEF7C5
:1021B000E1FA02902048006841F27071884214D21E
:1021C00000221E4B18071E4902F046FF05460E4628
:1021D0000298FEF7BCFA07462A463346FEF702FA93
:1021E0008246FEF7C7FA1749086016480168029848
:1021F000FEF7A1F80190FEF7AAFA07464FF08042D9
:10220000114B02F029FF05464FF080420F4BFEF7BD
:1022100077F98246FEF7AEFA81464846BDE8FE8F62
:10222000333353407B14AE47E17A743F000059408A
:102230000000C8426666144080000020B6DBDEBFA6
:102240003605993F7C0000208D9700C0332F8340D6
:102250002DE9FE4FFFF706FA0746FEF73BFA064662
:102260002C49FEF736F805464FF08B41FEF763F830
:1022700004462046FEF76BFA8246274A274BFEF7B4
:1022800098F807460022264BFEF73AF90546FEF776
:102290003FFA0090FEF715FA22490190FEF74BF83D
:1022A000044621461B48FEF70EF883462146FEF7FA
:1022B00042F88246FEF74BFA07464FF066321A4B59
:1022C000FEF71EF90546FEF755FA0290174800681A
:1022D00040F6B831884202D2029800F02FF8144834
:1022E00001680298FEF727F80190FEF730FA0746DA
:1022F0004FF040420F4B02F0AFFE05464FF0204238
:102300000D4BFEF7FDF88246FEF734FA814648464B
:10231000BDE8FE8F333353407B14AE47E17A743F00
:10232000000059400000C842666614407800002052
:1023300074000020F753F7BF9B9458402DE9F047F5
:1023400082464FF060420B4B0B480C4902F084FE72
:1023500006460F465046FEF7FAF9804632463B469F
:10236000FEF740F90446FEF705FA05490860BDE8A6
:10237000F0870000A7F2E5BFEBFA4F397209BA3FC8
:102380007400002010B50446207B012802D120688B
:1023900002F006FC002020606060A060207310BD89
:1023A0000246002301230DE002F07F000870D209ED
:1023B0002AB1087840F080000870491C01E01846F6
:1023C00070475B1C042BEFDD4FF0FF30F8E770B572
:1023D00004460E460025206898B901202073304637
:1023E00002F004FE20602068E0B100206060A6607A
:1023F00003E00020216848556D1CA068A842F8D869
:1024000010E00220207303E00020216848556D1C75
:10241000A068A842F8D800206060A068B04201D24D
:102420000020206070BD00002DE9FF5F07460D46CB
:1024300090463846FDF7C4FE86B22846FDF7C0FE3A
:102440001FFA80FA4FF00009B01D02F0CFFD0446DC
:102450001CB9012004B0BDE8F09FB11D2046FDF776
:102460007CFE12A0016821608088A0803246394637
:102470002046FDF7ACFE2846FDF7A2FE834601206C
:10248000002100915B462A46CDE9020801912146D0
:102490000A2000F05FF910B94FF0000901E04FF099
:1024A0000109204602F07CFB4846D3E7246372739F
:1024B000702F00002DE9FF4F83B082468B46914676
:1024C000159C0025002002900F2701904846FDF73B
:1024D00077FE0FFA80F8B9F1000F03D1012007B0A1
:1024E000BDE8F08F08F10200384487B2109808B1B7
:1024F00045F00205129878B145F004051298FDF7F1
:102500005FFEC0B202901398FDF75AFE0146029892
:10251000001D0844384487B2119820B1012804D026
:10252000022808D104E000BF07E045F00C0504E0F4
:1025300045F0140501E00220D1E700BF149808B16E
:1025400045F02405BAF1000F02D0BBF1000F01D114
:102550000320C4E745F0C0055046FDF731FE0646AE
:102560005846FDF72DFE3044001D384487B23946E9
:102570002046FFF72CFF206808B90420AFE7394652
:102580002068FDF7EAFD10216268501C6060206839
:102590008154D4E90023D118781FFFF701FF00B25E
:1025A00001900198002804DA2046FFF7EBFE052091
:1025B00095E7616801980844606000216268501CDA
:1025C00060602068815404216268501C606020684B
:1025D00081544D216268501C6060206881545121F3
:1025E0006268501C60602068815454216268501CED
:1025F0006060206881546268501C6060206881546B
:1026000004216268501C6060206881546168481C25
:102610006060206845540698010A6268501C60603A
:10262000206881540698C1B26268501C60602068BE
:102630008154C8F307216268501C6060206881548F
:102640006268501C6060206800F80280D4E90012C3
:10265000881842464946FDF7BAFD6068404460600C
:1026600005F00400B8B30026139808B938A01390F9
:102670001298FDF7A5FD86B2310A6268501C6060B1
:10268000206881546268501C606020688654D4E9D8
:102690000012881832461299FDF799FD606830449F
:1026A00060601398FDF78CFD86B2310A6268501C99
:1026B0006060206881546268501C606020688654A5
:1026C000D4E90012881832461399FDF780FD60683E
:1026D0003044606000BF05F08000C8B15046FDF78F
:1026E0006FFD86B2310A6268501C606020688154B8
:1026F0006268501C606020688654D4E90012881813
:1027000032465146FDF763FD60683044606000BFAB
:1027100005F04000C8B15846FDF752FD86B2310AB7
:102720006268501C6060206881546268501C606060
:1027300020688654D4E90012881832465946FDF7BD
:1027400046FD60683044606000BF0020C7E60000BE
:10275000000000002DE9FF4F83B083469046994664
:10276000139C002600250020029001900027BBF159
:10277000000F03D1012007B0BDE8F08F00250AE06B
:102780000498405D232803D00498405D2B2801D194
:102790000220F0E76D1C0498405D0028F0D147F05E
:1027A0003007119808B147F0010705EB0900861CB6
:1027B000109820B1012804D002280AD105E000BFFA
:1027C00009E047F00207B61C05E047F00407B61C15
:1027D00001E00320CFE700BF98F80000022822D1D3
:1027E0004FF0000A00BF50460AF1010A18F8000035
:1027F0007D28F8D1AAF1030A0AF107000290029895
:10280000A9EB000AF01CA0EB0A012046FFF7DFFD50
:10281000206808B90420AEE7F21CA2EB0A01206888
:10282000FDF79BFC0BE0F11C2046FFF7D0FD206874
:1028300008B904209FE7F11C2068FDF78EFC616851
:10284000481C606020684754D4E900028118304673
:10285000FFF7A6FD01900198002804DA2046FFF753
:1028600091FD052087E76168019808446060C5F321
:1028700007216268501C6060206881546268501CA7
:10288000606020688554D4E9001288182A460499AB
:10289000FDF79DFC606828446060109860B14FEAC5
:1028A0001B216268501C6060206881546268501C63
:1028B0006060206800F802B0B8F1000F19D098F8F5
:1028C000000002280BD1D4E9001288184146029A70
:1028D000FDF72AFC616802980844606009E0D4E9C9
:1028E000001288184A464146FDF71EFC60684844BD
:1028F000606000203FE700002DE9FF4107460D46DC
:1029000090461E460A9C01200021CDE90001EB1CE7
:102910000A460FA1CDE902040A20FFF71BFF88B980
:102920006168481C606020684654C5F307216268EE
:10293000501C6060206881546268501C6060206890
:10294000855403E0012004B0BDE8F0810020FAE7DF
:1029500024647000F0B504460D462646012300208D
:102960001060002114E0775C07F07F07106807FB18
:1029700003001060705C00F0800008B9481CF0BDD6
:10298000DB01B3F5001F02D36FF00100F7E7491C2C
:10299000A942E8DB4FF0FF30F1E72DE9F84380462C
:1029A0000C4615461E462F2108F10600FDF7FEFBDA
:1029B00007460020009017B90120BDE8F8837F1C6E
:1029C0006A46042108F10100FFF7C4FF252002F048
:1029D0000DFB2060206808B90220EEE72521206861
:1029E000FDF7BBFB242239462068FDF79DFB243709
:1029F00000982C3830803188481C02F0F7FA2860A3
:102A0000286820B9206802F0CBF80320D5E7328887
:102A1000511C2868FDF7A1FB328839462868FDF76C
:102A200083FB0020C9E701464878022801D0012035
:102A30007047887810B18878012801D1C878F7E705
:102A4000FF20F5E701464878022801D001207047B1
:102A5000887820B9C8780A2801D10020F7E701203A
:102A6000F5E70000F8B50446FF2720780511012D91
:102A700001DB0E2D01DD3846F8BD032D24D10020E9
:102A800000906A460421601CFFF764FF2044461C46
:102A90000098022803D3207800F0010008B1FF203D
:102AA000EAE77078317840EA0120801C009988427A
:102AB00001D9FF20E0E706A1B01CFDF765FB08B1D6
:102AC0000F2700E0032700E02F463846D4E7000038
:102AD000246372657100000000BFFEE770470000CC
:102AE00070B5002100230F22C47804B3154C24686C
:102AF00004F4E064C4F5E064210AC1F10403CA40AF
:102B0000447804FA03F184781440214309010E4CFF
:102B10000678A155047804F01F050124AC4005781F
:102B20006D11AD0005F1E025C5F8004109E004781C
:102B300004F01F050124AC40044D0678761145F8D9
:102B4000264070BD0CED00E000E400E080E100E014
:102B500002490143024A1160704700000000FA0573
:102B60000CED00E008B5FEF783FB03E04FF4FA70CC
:102B700001F0BCFF00F01EF80028F7D108490860FA
:102B800008A04EF67D734FF4784246210090042051
:102B9000FEF77EFD4FF4FA6001F0A8FF08BD0000CB
:102BA000B4012242CDF8C2E7C1ACBDD3CDEAB3C96E
:102BB0000000000030B58BB000200790089009900D
:102BC0000A90012535A338A239A13BA001F05AFA99
:102BD00045480078401CC0B243490870012809DB11
:102BE00042A04EF67D734FF47842462100901820A3
:102BF000FEF718FE07A8002102910391CDE9041009
:102C000000914FF4807325A2019127A128A0FFF71E
:102C100051FC00283BD1089A91B20798FEF7B6FB09
:102C2000FA20FEF7FDFA0446002C2CD02046FFF7D0
:102C300019FF022827D12046FFF7F5FE06281DD2EE
:102C4000DFE800F003080C1014182AA001F01AFAAB
:102C5000002517E02CA001F015FA13E031A001F0D7
:102C600011FA0FE038A001F00DFA0BE03EA001F0E0
:102C700009FA07E045A001F005FA03E04EA001F0D3
:102C800001FA00BF00BF07A8FFF77CFB02E051A0DC
:102C900001F0F8F928460BB030BD0000373130356F
:102CA000343936383500000031323334000000004A
:102CB00034313833303200004F6E654E65745F44F6
:102CC00065764C696E6B0D0A50524F49443A202587
:102CD000732C09415549463A2025732C0944455621
:102CE00049443A25730D0A006C0000204552524FAA
:102CF00052000000546970733A09C1ACBDD3B3C926
:102D0000B9A60D0A000000005741524E3A09C1AC65
:102D1000BDD3CAA7B0DCA3BAD0ADD2E9B4EDCEF32F
:102D20000D0A00005741524E3A09C1ACBDD3CAA7A3
:102D3000B0DCA3BAB7C7B7A8B5C4636C69656E74D5
:102D400069640D0A000000005741524E3A09C1ACB7
:102D5000BDD3CAA7B0DCA3BAB7FECEF1C6F7CAA7E7
:102D6000B0DC0D0A000000005741524E3A09C1ACD8
:102D7000BDD3CAA7B0DCA3BAD3C3BBA7C3FBBBF206
:102D8000C3DCC2EBB4EDCEF30D0A00005741524E46
:102D90003A09C1ACBDD3CAA7B0DCA3BAB7C7B7A8BC
:102DA000C1B4BDD328B1C8C8E7746F6B656EB7C72F
:102DB000B7A8290D0A0000004552523A09C1ACBD1E
:102DC000D3CAA7B0DCA3BACEB4D6AAB4EDCEF30D65
:102DD0000A0000005741524E3A094D5154545F5079
:102DE00061636B6574436F6E6E65637420466169E1
:102DF0006C65640D0A00000070B588B0044620219F
:102E00006846FDF7AAF953A12046FDF7F4F9202101
:102E10006846FDF7A2F950480068FDF798FC0546A2
:102E20002A460B464DA1684601F03CF9694620460A
:102E3000FDF79EF920216846FDF78FF94B480068A1
:102E4000FDF785FC05462A460B4649A1684601F078
:102E500029F969462046FDF78BF920216846FDF7E0
:102E60007CF946480068FDF772FC05462A460B4689
:102E700043A1684601F016F969462046FDF778F946
:102E800020216846FDF769F940484378027840A15F
:102E9000684601F007F969462046FDF769F92021E7
:102EA0006846FDF75AF93948C37882783DA16846EB
:102EB00001F0F8F869462046FDF75AF920216846E6
:102EC000FDF74BF93C480068FDF741FC05462A46F2
:102ED0000B463AA1684601F0E5F869462046FDF741
:102EE00047F920216846FDF738F93848007828B1BD
:102EF000374A38A1684601F0D5F804E0384A35A1D0
:102F0000684601F0CFF869462046FDF731F92021E7
:102F10006846FDF722F93348027833A1684601F08C
:102F2000C1F869462046FDF723F920216846FDF7E0
:102F300014F9314831A10268684601F0B3F86946D6
:102F40002046FDF715F92046FDF73AF9C0B208B062
:102F500070BD00002C3B00000C00002042483137BF
:102F600035302C252E31663B00000000100000207B
:102F70004D51322C252E31663B00000014000020FC
:102F80004D51372C252E31663B00000004000020F7
:102F900044485431315F48554D2C25642E25643BFF
:102FA0000000000044485431315F54454D2C2564E5
:102FB0002E25643B000000001800002053523034DE
:102FC0002C252E3166636D3B000000001C000020A4
:102FD0005E00002073723530312C25733B000000F9
:102FE00065000020240000204C45445F4C69676860
:102FF000742C25643B000000200000204D41585FE8
:103000004D51372C25643B002DE9F0418AB08046B4
:103010000020069007900890099005900490039076
:1030200000260027002400254046FFF71BFD06462A
:10303000042E22D00F2E26D103AB05AA04A94046A8
:10304000FFF7ABFC0746BFB9BDF80C302FA0DDE998
:10305000041201F017F806AADDE90401FFF7E4F90C
:1030600050B933A001F00EF8079A91B20698FEF716
:103070008DF906A8FFF786F908E04046FFF7E2FC65
:1030800000B903E000BF4FF0FF3700BF00BFFEF7FD
:10309000B9F8781C10B90AB0BDE8F0813A2105985A
:1030A000FDF784F804462CB3781C18B3641C05E0C3
:1030B00014F8012B28466D1C0DF8002020783028CC
:1030C00002DB20783928F3DD00200DF80500684682
:1030D000FDF79AF805461CA10598FDF755F810B1C3
:1030E0001C490D7006E01CA10598FDF74DF808B1CC
:1030F0001B4805600F2E01D0032E05D1049801F066
:103100004FFD059801F04CFD00BFC4E7636D646995
:10311000643A2025732C207265713A2025732C2087
:103120007265715F6C656E3A2025640D0A000000BF
:10313000546970733A0953656E6420436D64526537
:1031400073700D0A000000004C45445F4C696768CD
:1031500074000000240000204D41585F4D5137009D
:103160002000002030B5A5B00020219022902390AF
:10317000249000240025802101A8FCF7EEFF01A87F
:10318000FFF73AFE0446002C20D021A80523002298
:10319000214600900EA0FFF7AFFBA0B908E001A800
:1031A000415D229A501C229021988154681C05B2DE
:1031B000A542F4DB229A91B22198FEF7E7F821A804
:1031C000FFF7E0F802E005A000F05CFF25B030BD9D
:1031D0003731303534393638350000005741524EDA
:1031E0003A094544505F4E657742756666657220C0
:1031F0004661696C65640D0A0000000010B500218D
:10320000054800F05AFC00200449088001210248CA
:1032100000F0DAFA10BD0000000800407200002043
:1032200010B50446A1B2024800F045FC10BD0000F4
:103230000004004008B50121082000F089F80120B1
:10324000ADF8000018208DF8030003208DF802006F
:1032500069460248FEF713F908BD0000000C014062
:1032600010B5FFF7E7FF00F001F810BD10B588B00A
:103270000121022000F04CF81320ADF81800B32013
:10328000ADF814000020ADF81A00ADF816008DF866
:103290001C0005A90E4800F013FC00246020ADF8C6
:1032A00004000120ADF806000020ADF80C00ADF8D8
:1032B0000A4001A9064800F0A5FB0821044800F0D7
:1032C000F1FB0121024800F07FFA08B010BD0000B8
:1032D000000400407047000001460020034A506887
:1032E00020F4404008435060704700000010024046
:1032F00029B1064A52690243044B5A6104E0034A69
:1033000052698243014B5A6170470000001002402D
:1033100029B1064AD2690243044BDA6104E0034A48
:10332000D2698243014BDA6170470000001002400D
:1033300029B1064A12690243044B1A6104E0034AA8
:1033400012698243014B1A6170470000001002406D
:1033500029B1064A92690243044B9A6104E0034A88
:1033600092698243014B9A6170470000001002404D
:1033700029B1064AD2680243044BDA6004E0034AEA
:10338000D2688243014BDA607047000000100240AF
:1033900030B500210022002400232D4D6D6805F07A
:1033A0000C0121B1042905D0082923D105E0294DBC
:1033B000056022E0274D05601FE0254D6D6805F48E
:1033C0007012234D6D6805F48034022505EB92429E
:1033D0001CB9214D554305600BE01D4D6D6805F48A
:1033E00000351DB11C4D5543056002E0194D554394
:1033F000056002E0174D056000BF00BF144D6D6809
:1034000005F0F0010909154D6B5C0568DD4045606C
:103410000F4D6D6805F4E061090A104D6B5C45685D
:10342000DD4085600A4D6D6805F46051C90A0B4D99
:103430006B5C4568DD40C560054D6D6805F4404135
:10344000890B074D6B5CC568B5FBF3F5056130BDB5
:103450000010024000127A0000093D0046000020E2
:103460005600002070B50025002424E000BF102184
:103470001348FEF78FF80028F9D0282001F05CFBF4
:1034800010210F48FEF786F801280DD100BF10214A
:103490000B48FEF77FF80128F9D0C4F1070101209D
:1034A0008840C0B2054304E0C4F107010120884010
:1034B0008543601CC4B2082CD8DB284670BD0000D0
:1034C0000008014010B50446FDF7BAFD102124485C
:1034D000FEF769F8122001F009FB10212048FEF7E1
:1034E00064F81E2001F028FBFDF79CFD10211C480C
:1034F000FEF750F880BB00BF10211948FEF74AF8CC
:103500000028F9D000BF10211548FEF743F8012824
:10351000F9D0FFF7A7FF2070FFF7A4FF6070FFF757
:10352000A1FFA070FFF79EFFE070FFF79BFF2071E7
:10353000FDF786FD10210A48FEF737F820786178FC
:103540000844A1780844E17808442179884201D1EF
:10355000012010BD0020FCE7FFE70020F9E7000094
:10356000000801400021082117E000F0800222B18C
:103570004FF480520A4B1A6004E04FF48052084B1B
:103580001B1D1A604FF40052054B1B1D1A601B1FB8
:103590001A604206100E4A1ED1B20029E5DC7047BF
:1035A000100C014010B520210348FDF7F3FF01285E
:1035B00000D110BD0020FCE70008014008B5012142
:1035C0000420FFF7C5FE2020ADF8000028208DF86C
:1035D000030069460148FDF752FF08BD000801409D
:1035E000704710B500F002F810BD00000CB50020C7
:1035F000019000903348006840F480303149086001
:1036000000BF3048006800F4003000900198401C72
:103610000190009818B90198B0F5A06FF1D1294830
:10362000006800F4003010B10120009001E000209B
:1036300000900098012843D12348006840F0100012
:10364000214908600846006820F003000860084629
:10365000006840F0020008601A4840681949486054
:103660000846406848600846406840F4806048600A
:103670000846406820F47C1048600846406840F4E2
:10368000E81048600846006840F08070086000BF9D
:103690000C48006800F000700028F9D00948406824
:1036A00020F00300074948600846406840F00200E7
:1036B000486000BF0348406800F00C000828F9D1BA
:1036C0000CBD00000010024000200240042808D178
:1036D0004FF0E021096941F004014FF0E02211614F
:1036E00007E04FF0E021096921F004014FF0E022EA
:1036F0001161704710B51348006840F0010011498E
:10370000086008464068104908400E49486008466D
:1037100000680E4908400B4908600846006820F41C
:10372000802008600846406820F4FE0048604FF49E
:103730001F008860FFF755FF4FF0006004490860E4
:1037400010BD0000001002400000FFF8FFFFF6FE71
:1037500008ED00E010B50121880700F038F990B1BC
:1037600009480068401C0849086008480068401C77
:103770000649086006480068401C054908600121A8
:10378000880700F01EF810BD000000208000002017
:103790007800002010B50121064800F018F940B16A
:1037A0000121044800F00DF803480088401C02493C
:1037B000088010BD0008004072000020CA43028249
:1037C0007047CA430282704721B1028842F0010269
:1037D000028004E002884FF6FE731A4002807047B0
:1037E00010B504466848844208D10121C014FFF78F
:1037F000BFFD0021E014FFF7BBFDC4E0B4F1804F32
:1038000008D101210846FFF793FD00210120FFF7B1
:103810008FFDB8E05D48844208D101210220FFF706
:1038200087FD00210220FFF783FDACE05848844269
:1038300008D101210420FFF77BFD00210420FFF7C0
:1038400077FDA0E05348844208D101210820FFF70A
:103850006FFD00210820FFF76BFD94E04E48844285
:1038600008D101211020FFF763FD00211020FFF790
:103870005FFD88E04948844208D101212020FFF7FC
:1038800057FD00212020FFF753FD7CE0444884428F
:1038900008D101214014FFF76BFD00216014FFF7F0
:1038A00067FD70E03F48844209D10121C804FFF759
:1038B0005FFD00214FF40020FFF75AFD63E03A4816
:1038C000844209D101210805FFF752FD00214FF480
:1038D0008010FFF74DFD56E03448844209D10121A4
:1038E0004805FFF745FD00214FF40010FFF740FDAC
:1038F00049E02F48844208D101214020FFF718FDFC
:1039000000214020FFF714FD3DE02A48844208D101
:1039100001218020FFF70CFD00218020FFF708FD2A
:1039200031E02548844208D101218015FFF700FDD0
:103930000021A015FFF7FCFC25E02048844209D1B6
:1039400001210804FFF714FD00214FF48030FFF738
:103950000FFD18E01A48844209D101214804FFF7FD
:1039600007FD00214FF40030FFF702FD0BE0154882
:10397000844208D101218804FFF7FAFC00214FF4AA
:103980008020FFF7F5FC10BD002C01400004004032
:1039900000080040000C00400010004000140040EF
:1039A00000340140004C01400050014000540140EF
:1039B00000180040001C0040002000400040014072
:1039C00000440140004801400146888C704730B5F2
:1039D0000246002000230024158A05EA0103958988
:1039E00005EA010413B10CB1012000E0002030BD54
:1039F0001AB183890B43838102E083898B438381DE
:103A00007047000070B5002400220023058C4FF69B
:103A1000FF6635400584028C8388848B4FF68F7552
:103A20002C404FF6FC752C400D882C434FF6FF556B
:103A30002A400D894FF6FF7606EA05252A434D8870
:103A400006EA05252A43154DA84202D0144DA84286
:103A50001DD14FF2FF752A404D894FF6FF7606EAD9
:103A600005252A434FF6FF352A408D8806EA0525AD
:103A70002A434EF6FF752B404DF6FF752B408D897E
:103A800006EA05152B43CD8906EA05152B438380ED
:103A90008483CD888587028470BD0000002C01409E
:103AA000003401400A460021818B4FF6F77319401C
:103AB000114381837047818770478184704700007C
:103AC000002202881D4B98420ED01D4B98420BD00D
:103AD000B0F1804F08D01B4B984205D01A4B98424A
:103AE00002D01A4B984204D14FF68F731A404B887C
:103AF0001A43174B984207D0164B984204D04FF602
:103B0000FF431A40CB881A4302808B8883850B8839
:103B100003850A4B98420BD0094B984208D00E4BB4
:103B2000984205D00D4B984202D00D4B984201D1DE
:103B30000B7A03860123838270470000002C01402A
:103B4000003401400004004000080040000C004028
:103B500000100040001400400040014000440140BB
:103B60000048014010B540F225511D4800F086F88C
:103B700010B31B4800F03EF9C4B21A48008800F4A4
:103B80000040C8B91748008800F4804060B10A2C92
:103B900003D000201349088020E01248008840F438
:103BA00000401049088019E00D2C06D10D4800880E
:103BB00040F480400B49088010E00A480088C0F3B8
:103BC0000D0009490C5407480088401C054908802D
:103BD00008460088C72801DD0020088010BD0000CD
:103BE00000380140440000209000002010B540F251
:103BF00025510E4800F042F8B0B10D4800888028E9
:103C000002D300200A4908800848001D0088C1B27C
:103C1000074802880088401C054B188005488154DD
:103C20002021024800F008F810BD000000440040C8
:103C30005A0000205801002001F40072B2F5007F04
:103C400000D100BFCA430280704721B1828942F48B
:103C50000052828104E082894DF6FF731A4082810E
:103C6000704702460020B1F5007F00D100BF1388E5
:103C70000B400BB1012000E00020704770B50246F8
:103C8000002400230025002040F66A16B14200D12E
:103C900000BFC1F3421501F01F03012606FA03F32A
:103CA000012D02D19689334006E0022D02D1168AF9
:103CB000334001E0968A33400C12012606FA04F4E0
:103CC0001688344013B10CB1012000E0002070BD13
:103CD000F0B50346002400260025002040F66A17B0
:103CE000B94200D100BF1846C1F3421401F01F06CB
:103CF000012707FA06F5012C01D10C3004E0022C53
:103D000001D1103000E014301AB107682F4307606A
:103D100002E00768AF430760F0BD00002DE9F047FF
:103D200086B005460E460024A24600BFA1460027E5
:103D3000B08900B100BF2F462C8A4CF6FF700440BA
:103D4000F08804432C82AC894EF6F3100440B0880E
:103D500031890843718908430443AC81AC8A4FF62A
:103D6000FF400440B0890443AC8201A8FFF710FB78
:103D70001F48874202D1DDF810A001E0DDF80CA059
:103D8000A88900F4004040B10AEBCA0000EB0A1019
:103D900031684900B0FBF1F807E00AEBCA0000EB1C
:103DA0000A1031688900B0FBF1F86420B8FBF0F02C
:103DB00004012009642101FB1089A88900F4004056
:103DC00040B1322000EBC900B0FBF1F000F0070079
:103DD000044308E0322000EB09106421B0FBF1F04D
:103DE00000F00F0004432C8106B0BDE8F08700000E
:103DF0000038014001468888C0F308007047C1F3CD
:103E000008028280704700BFFEE7000010B586B050
:103E10000446012144F20400FFF79AFA4FF40070BF
:103E2000ADF8140003208DF8160018208DF8170047
:103E300005A91C48FDF723FB4FF48060ADF8140082
:103E400004208DF8170005A91648FDF718FB25205A
:103E50008DF8000003208DF801008DF8020001208C
:103E60008DF803006846FEF73BFE01940020ADF894
:103E70000800ADF80A00ADF80C00ADF810000C20F9
:103E8000ADF80E0001A90848FFF748FF012240F2F3
:103E900025510548FFF71CFF01210348FFF7D5FE18
:103EA00006B010BD000801400038014010B586B0D2
:103EB000044601210420FFF74BFA01214804FFF7D3
:103EC00027FA18208DF817000420ADF814000320FD
:103ED0008DF8160005A91E48FDF7D1FA04208DF8CB
:103EE00017000820ADF8140003208DF8160005A96E
:103EF0001748FDF7C4FA01940020ADF810000C201B
:103F0000ADF80E000020ADF80C00ADF80A00ADF8D9
:103F1000080001A90F48FFF701FF01210D48FFF735
:103F200094FE012240F225510A48FFF7D1FE2620D7
:103F30008DF8000001208DF8030000208DF80100AD
:103F40008DF802006846FEF7CBFD06B010BD0000FC
:103F5000000801400044004070B504460D460026AC
:103F60000DE014F8011B0748FFF749FF00BF40218F
:103F70000448FFF776FE0028F9D0701C86B2AE42E6
:103F8000EFDB70BD0044004010B51EA000F07AF8D1
:103F900003E04FF4FA7000F0A9FDC8221BA11CA099
:103FA000FDF7CCF90028F4D11BA000F06BF803E07A
:103FB0004FF4FA7000F09AFDC82214A119A0FDF781
:103FC000BDF90028F4D11BA000F05CF803E04FF429
:103FD000FA7000F08BFDC8220CA119A0FDF7AEF914
:103FE0000028F4D11AA000F04DF803E04FF4FA7065
:103FF00000F07CFDC82218A119A0FDF79FF9002848
:10400000F4D110BD41540D0A000000004F4B0000D8
:1040100041540D0A0D00000043574D4F44450D0A11
:104020000000000041542B43574D4F44453D310D96
:104030000A00000041542B4357444843500D0A00E6
:1040400041542B4357444843503D312C310D0A0015
:1040500043574A41500D0A00474F54204950000031
:1040600041542B43574A41503D22434D43432D4534
:104070004455222C223135363831393331363833F4
:10408000220D0A000FB4054B10B503A9044A02988B
:1040900000F082F910BC5DF814FB0000854B0008AD
:1040A000400000200FB4084B10B504A902AA0398E1
:1040B00000F072F9044602A9002000F0F0FC20464E
:1040C00010BC5DF814FB00009F4A0008490050EA4C
:1040D000C12018BF04204A0D18BF40F0010040F273
:1040E000FF72B2EB515F08BF40F00200012808BF29
:1040F00005207047004870478C0000202DE9F041F2
:104100004F1E00EBC7010446D1E9000115461E46CB
:1041100037F006020DD02A463346FCF7F1F97F1E30
:1041200004EBC703D3E90023FCF743F937F0060299
:10413000F1D1022F25D0042F13D0062F18BFBDE8D0
:10414000F0812A463346FCF7DBF9D4E90A23FCF771
:1041500030F92A463346FCF7D3F9D4E90823FCF7B3
:1041600028F92A463346FCF7CBF9D4E90623FCF7B5
:1041700020F92A463346FCF7C3F9D4E90423FCF7B7
:1041800018F92A463346FCF7BBF9D4E90223FCF7B9
:1041900010F92A463346FCF7B3F9D4E90023BDE809
:1041A000F041FCF706B90000002213461046014911
:1041B000FCF718BA0000F03FFCF7FBB800221346EA
:1041C00010461146FCF70EBA40F2013200204FF0C3
:1041D000E041FCF72FBC0000024A00201107FCF769
:1041E00029BC000001FDFFFF02E008C8121F08C142
:1041F000002AFAD170477047002001E001C1121F68
:10420000002AFBD170470000014908607047000098
:104210008C0000202DE9FF5F82B00021DDE9043031
:10422000020DDDF840B0034318D044F61050A2F25E
:10423000FF3242431514119801281FD0A5EB0B0043
:10424000401C5FEA000A4FF000064E4FDFF838913D
:10425000B046504615D5CAF1000413E01198012468
:104260004AA3012801D16FEA0B010298119AC0E913
:104270000031C0E9024206B0BDE8F09FCBF100007A
:10428000DFE704460021404A491842EB0450CDE9DB
:10429000001012E0E00707D032463B464046494650
:1042A000FCF72EF98046894632463B4610461946B1
:1042B000FCF726F906460F466410002CEAD1DDE92A
:1042C0000401DDE90023BAF1000F06DAFCF718F962
:1042D00042464B46FCF714F905E0FCF783F94246E9
:1042E0004B46FCF77FF904460E460022284BFCF7AC
:1042F000E1FB03D84FF0FF30014607E00022254BD9
:1043000020463146FCF755F8FCF7BCFB102409E0C9
:10431000002C0ADB0A220023FCF75EFA039B3032F2
:104320001A55641E50EA0102F2D1641C039AC4F1CA
:1043300011031444119A012A03D0012208430DD11C
:104340000AE0084304D000204FF0110B119072E7EF
:10435000A3EB0B056D1E0DE05B4504DD4FF0000285
:1043600005F1010504E003DA4FF00002A5F10105B3
:10437000002AECD002981199C0E90231C0E9004549
:1043800079E70000000014400000F03F300000001A
:104390000000F0430000E03F2DE9FF4F95B09A4642
:1043A000884606460025EEE1252877D100242746D9
:1043B000F94A0121039400E0044316F8013F203B31
:1043C00001FA03F01042F7D130782A2811D06FF0AB
:1043D0002F033078A0F13002092A16D8039A44F04E
:1043E000020402EB820203EB42021044761C0390AB
:1043F000EFE758F8042B0392002A03DA504244F402
:104400000054039044F00204761C30782E2816D114
:1044100016F8010F44F004042A280DD06FF02F0283
:104420003078A0F13003092B09D807EB870302EBA2
:104430004303C718761CF3E758F8047B761C3078E2
:104440006C280FD006DC4C2817D068280DD06A28BD
:1044500014D104E0742810D07A280FD10DE044F470
:1044600000140AE044F4801401E044F4401472782B
:10447000824202D104F58014761C761C30786628BE
:104480000BD013DC582877D009DC002875D04528DC
:10449000F6D04628F4D047281AD193E118E06328D3
:1044A00035D0642879D0652812D18BE1702873D07B
:1044B00008DC6728F1D069286FD06E280DD06F28EE
:1044C00006D1ACE073282CD0752874D0782853D04E
:1044D0005246179990476D1C54E1C4F302500228CC
:1044E00009D003280DD0D8F8001004280DD00D6095
:1044F00008F1040846E1D8F80010EA17C1E90052B3
:10450000F6E7D8F800100D80F2E70D70F0E718F824
:10451000041B8DF8001000208DF80100EB460120EF
:1045200003E058F804BB4FF0FF3061074FF0000183
:1045300002D40DE009F101018946B9420FDA814543
:10454000F8DB1BF809100029F4D108E009F101019A
:1045500089468142FADB1BF809100029F6D103983D
:104560005346A0EB090721463846179A00F080FA17
:10457000284400EB090507E044E008E10DE01BF8E2
:10458000010B524617999047B9F10109F7D25346EA
:1045900021463846179AF2E039E00A21C4F3025264
:1045A0004FF0000B0091022A06D058F8040BC117F7
:1045B000032A09D00AE023E008F1070020F00702EF
:1045C000F2E80201904605E000B2C117042A01D1C9
:1045D00040B2C117002906DA0A460021404261EBC9
:1045E00002012D2202E0220504D52B228DF80420A1
:1045F000012203E0E20701D02022F7E7914657E0CD
:104600000A2100E010214FF0000B00910BE0102177
:104610004FF0000B44F004040827009103E0082049
:104620004FF0000B0090C4F30252022A05D058F854
:10463000040B0021032A08D008E008F1070020F04D
:104640000702F2E80201904603E080B2042A00D19A
:10465000C0B24FF0000922072AD53278702A07D05D
:10466000DDF800C08CF0100C5CEA0B0C05D00EE0FD
:1046700040228DF80420012208E050EA010306D010
:1046800030238DF804308DF8052002229146009BDE
:1046900083F0080353EA0B030AD150EA010201D167
:1046A000620705D530228DF804204FF001097F1EE6
:1046B0003278582A04D039A20C920CAA02920BE04C
:1046C0003BA2F9E75B46009AFCF786F80C9B9B5CE3
:1046D000029A521E0292137050EA0102F2D102981D
:1046E00004A9081A00F1200B600702D524F48034D5
:1046F00000E001275F4502DDA7EB0B0000E0002092
:1047000000EB0B01009003984944401A0390E0032A
:1047100006D453462146179A039800F0A9F9054498
:10472000002706E001A85246C05D179990476D1C0E
:104730007F1C4F45F6DBE0030CD553462146179A04
:10474000039800F095F9054404E03020524617998B
:1047500090476D1C0099481E00900029F5DC08E088
:104760000298029952460078491C02911799904785
:104770006D1CBBF10001ABF1010BF1DC5BE100F062
:1047800065F90544761C307800287FF40DAE19B029
:104790002846BDE8F08F000009280100303132338F
:1047A000343536373839616263646566000000006D
:1047B0003031323334353637383941424344454657
:1047C00000000000600700D4062708F1070020F071
:1047D0000700F0E80223804603F0004C5FEA0C007B
:1047E00001D097A009E0200501D596A005E0E007DB
:1047F00001D095A001E0AFF24C001390307823F087
:10480000004365280CD006DC452809D046281DD079
:1048100047287FD13BE0662818D067287AD136E058
:104820000021112F01DB112000E0781CCDE90001EF
:1048300004A90CA8FFF7EEFCDDE90D010C9A4FF07E
:10484000000B07F10109109200914EE04FF000407B
:104850000097CDE9011004A90CA8FFF7DBFCDDE906
:104860000D020C9B0F994FF0000B91461093009294
:1048700011B9791C00EB0109B7EB090003D4C0F1B1
:10488000FF3B07F10109A9EB0700019042E0012F6E
:1048900000DA01270021112F01DD112000E0384648
:1048A000CDE9000104A90CA8FFF7B4FCDDE90D0176
:1048B0000C9A00914FF0000BB946109221070FD4CB
:1048C000009A4A4503DA914601E0A9F10109B9F1DC
:1048D000010F05DD109AA9F10101515C3029F4D0D6
:1048E000B84202DA10F1040F03DA0121CDE9011018
:1048F00010E0002803DC8344A9EB000102E0411C26
:10490000494500DD8946A0EB0B00401C01904FF0AB
:1049100000400290200705D40198484502DB4FF083
:10492000FF30019000208DF84B0002980DF14B07ED
:10493000B0F1004F25D002200C902B200D90029852
:1049400000280CDA404202902D200D9007E00A2149
:104950000298FBF72BFF3031029007F8011D0C99EC
:10496000481E0C900029F2DC02980028EFD1791E35
:104970000D980870307800F0200040F0450007F8EE
:10498000020D11A8C01BC01D02901398007800B141
:10499000012000EB0901019801EBE071029801444C
:1049A0000398401A401E0390E00306D45346214664
:1049B000179A039800F05CF805441398007818B132
:1049C0005246179990476D1CE00323D55346214664
:1049D000179A039800F04CF805441BE0BBF1000F58
:1049E00007DB0098584504DD1098179910F80B0064
:1049F00001E0179930205246904701980BF1010BC6
:104A0000401E05F10105019004D12E205246179950
:104A100090476D1CB9F10001A9F10109DEDC05E048
:104A200017F8010B5246179990476D1C0299481EC2
:104A300002900029F4DC53462146179A03989EE61B
:104A40002D0000002B000000200000002DE9F041A7
:104A5000044600251E461746880404D405E039465E
:104A60002020B0476D1C641EF9D52846BDE8F081B2
:104A70002DE9F041044600251E469046C80301D5A5
:104A8000302700E02027880404D505E04146384659
:104A9000B0476D1C641EF9D52846BDE8F0810A6850
:104AA000531C0B601070704710B56FF00400FEF7D8
:104AB0000DFE0A4800680A49B0FBF1F00949087088
:104AC0000846007800EB4001C1EBC0104FF6FF71C3
:104AD00001EAC0000449088010BD00002800002041
:104AE00000127A003C0000203E0000200146114ADE
:104AF00012884A434FF0E0235A6100229A611A4615
:104B0000126942F001021A6100BF4FF0E022106901
:104B100000F001021AB100F48032002AF5D04FF003
:104B2000E022126922F001024FF0E0231A61002214
:104B30009A6170473E0000200146114A12784A43AC
:104B40004FF0E0235A6100229A611A46126942F03E
:104B500001021A6100BF4FF0E022106900F001026B
:104B60001AB100F48032002AF5D04FF0E022126929
:104B700022F001024FF0E0231A6100229A6170478F
:104B80003C00002000BF054A128802F04002002AC3
:104B9000F9D0C2B2014B1B1D1A807047003801408A
:104BA00010B5002821D0114B0022001F196803E026
:104BB000814203D80A4649680029F9D152B11368E5
:104BC000841A9C4204D1006818441060104602E028
:104BD000506000E0186039B102680B1A934203D1AB
:104BE0000B681A4402604968416010BD84000020CF
:104BF00008B51E208DF8000000208DF801008DF80A
:104C0000020001208DF803006846FDF769FF08BD2A
:104C100010B580200949086000F0B8F84020074925
:104C2000091F086000F0B2F840200449086000F055
:104C3000ADF880200149091F086010BD140C014027
:104C400010B580200749086000F0A0F84020054911
:104C5000086000F09BF840200249091D086000F040
:104C600095F810BD100C014070B50024002516E029
:104C70006006040E40200C49086000F087F80A48DE
:104C80000838006800F0800008B1601CC4B2402001
:104C90000549091D086000F079F8681CC5B2082DA7
:104CA000E6DB204670BD0000100C014070B50446E4
:104CB000002520E004F0800018B180200F49086032
:104CC00003E080200D49091D086000F05FF84020D6
:104CD0000A49086000F05AF840200849091D086098
:104CE000072D02D18020091F08606006040E00F025
:104CF0004DF8681CC5B2082DDCDB70BD100C0140FE
:104D000010B58020094908604020086000F03EF896
:104D100080200649091D086000F038F8402003494A
:104D2000091D086000F032F810BD0000100C0140B1
:104D300010B58020054908604020091F086000F078
:104D400025F880200149091F086010BD140C01409E
:104D500010B580200C49086000F018F840200A497E
:104D6000086000F013F808480838006800F0800078
:104D700008B1012400E0002440200349091D086017
:104D800000F004F8204610BD100C0140002001E0A6
:104D9000411CC8B20A28FBDB704700001CB5002488
:104DA0004FF4967500200190FCF7A4FEFDF7DAFEA3
:104DB000FCF728FB0020FCF7D3FF65A04EF67D73BF
:104DC0000022042100901920FCF762FC4FF6FF70CE
:104DD0007E231A46012100900846FCF7EDFBB5E062
:104DE0000A20FFF783FE681C85B20020FCF718FA42
:104DF000044614B12046FEF707F9B5F5967F7DDB32
:104E00005648FEF75FFB012822D15448C3788278C8
:104E100053A101A8FFF746F901A800234FF47842F7
:104E20001E2100900420FCF733FC252000904B4805
:104E3000437802784EA101A8FFF734F901A80023B6
:104E40004FF47842322100900420FCF721FC14E05A
:104E50004BA0FFF717F94FA000234FF478421E2113
:104E600000900420FCF714FC4AA000234FF4784281
:104E7000322100900420FCF70BFCFDF74BF9474969
:104E8000086008460068FBF762FC064632460B469F
:104E900043A101A8FFF706F901A800234FF6E0722D
:104EA000462100900420FCF7F3FBFDF745F940494B
:104EB000086008460068FBF74AFC064632460B4687
:104EC0003CA101A8FFF7EEF801A800231F225A21F8
:104ED00000900420FCF7DCFBFDF7BAF939490860C3
:104EE00008460068FBF733FC064632460B4636A1FF
:104EF00001A8FFF7D7F801A8002300E00BE04FF46A
:104F0000FC626E2100900420FCF7C2FBFEF72AF938
:104F10000025FCF777F9FCF753FE2F490860FEF7F0
:104F200041FB2E4908702E480078FEF779F9254894
:104F30000068FBF7D4FB2B490968884203DB00209B
:104F40002949086002E001202749086048E700007D
:104F500020CFB5CDB3BCE0BFD820000004000020B6
:104F6000CEC2B6C8A3BA25642E256420A1E62000CF
:104F7000CAAAB6C8A3BA25642E25642025632000DA
:104F800052656164204448543131204552524F5299
:104F9000210D0A004552524F522100000C00002002
:104FA000B9E2D5D5A3BA252E31666C782020000051
:104FB00010000020D1CCCEEDA3BA252E3166207092
:104FC000706D20001400002020434F20A3BA252E2E
:104FD00031662070706D2000180000201C00002039
:104FE0002400002020000020AC012142F0B50B304D
:104FF000154D20F007010024144A0FE003688B428E
:105000000BD38B4205D95E1A43184768C3E9006782
:1050100000E04368136002C004E0021D106800282D
:10502000ECD12046002802D1286808B10020F0BD4C
:10503000064A07481060074A121A22F00702C0E920
:10504000002401202860D7E7880000208400002089
:10505000DC010020D80300202DE9F04D1D460C4650
:1050600098B0174621F0004123F00043002814BFF8
:105070004FF0010C4FF0000C0CEB440CFE4A0CEB13
:1050800002064FEA620C66452BD33E0018BF01268C
:1050900006EB45061644F94A964222D3F84A53EAEB
:1050A000070C02D0944205D148B918B0002011462F
:1050B000BDE8F08D002808BF4FF0000C01D04FF084
:1050C000010C0CEB440212F5001F0AD8002F14BF8C
:1050D0004FF0010C4FF0000C0CEB450212F5001FD5
:1050E00007D918B03A462B462146BDE8F04DFFF7E8
:1050F00063B80022DFF88CA3002CB8BF534526DA32
:10510000DFF884C36345A8BF022220DADFF870C34A
:105110009C451CDCDFF874C30CEB235CBCF1140F62
:1051200008DDCCF1340627FA06FC0CFA06F6BE427E
:105130000DD108E05FB9CCF1140623FA06FC0CFA95
:1051400006F69E4203D10CF00102C2F1020251EABE
:10515000000C19D1002D17DA002C18BF022A01D03B
:10516000012A07D00220FFF74FF818B0BDE8F04D34
:10517000FFF71AB80220FFF747F8FFF715F818B045
:1051800081F00041BDE8F08DB7F1000C6CD15345C2
:1051900025D104F1804212F5801201BF00280020C1
:1051A000B74918B008BFBDE8F08DB548884207DCA4
:1051B000002DA1BF6046294618B0BDE8F08D07E07C
:1051C000281E05DA80F0004118B06046BDE8F08D79
:1051D000AF497944D1E9000118B0BDE8F08DDFF89E
:1051E000A0C2634525D1002D1FDA19B1514512D156
:1051F000D8B909E0002840F0EC82A24A214618B054
:1052000062F31E01BDE8F08D0020214618B060F366
:105210001E01BDE8F08D08DA18B02346BDE8F04D58
:10522000024600206146FBF7DDB918B02146BDE813
:10523000F08D514518DAB5F1804F0DD0A5F1005C25
:10524000BCF1FF5C10D1B4F1000C0DDB18B061466D
:10525000BDE8F04D00F0ECBB234618B00246BDE8B7
:10526000F04D1946FBF74CB9060024F0004C3BD139
:10527000D9B1514533D1002C06DD002DA1BF00204E
:10528000514618B0BDE8F08D002C01DD002D1BDB70
:10529000002C13DA002D11DB012A4FF0000014BF9F
:1052A00078497C4918B0BDE8F08D022A18BF002C5F
:1052B0000AD0012A08D1002C06DA0AE0002CB8BF77
:1052C000002D11DA012A04D0002018B00146BDE8F3
:1052D000F08D18B000204FF00041BDE8F08DA1F135
:1052E0004050B0F17F601AD0012000EBE47050EA2A
:1052F000020421D0624C521E4FF0000B104304BF39
:105300004FF0000B644C654883427CDD644A65487D
:1053100093421FDD884217DB002D25DB37E0002C90
:1053200000DA4AB1022A0CBF01204FF0FF3018B05A
:10533000BDE8F04DFBF795BB0120FEF765FF18B007
:10534000BDE8F04DFEF73ABF4D4A8A4202DC002D1F
:105350000ADC1CE0814202DA002D18DA04E0484B36
:10536000994220DD002D12DD0220FEF74DFFFEF7F1
:105370002BFF05460E460022534658462146FBF7B2
:10538000BFF818B066F31E012846BDE8F08D022074
:10539000FEF73AFFFEF720FF0A46214618B062F3F7
:1053A0001E01BDE8F08D002230466146FBF7A2F8F1
:1053B00080460E466FF00102FBF73CFB4FF0553282
:1053C000394BFBF79AF842463346FBF799F800222F
:1053D000364BFBF792F8824642463346049110461C
:1053E0001946FBF78DF85246049BFBF789F88A466D
:1053F00000904FF0C0422E4B40463146FBF780F8FC
:105400002C4A2B4B00E027E0CDE9060151460098DD
:10541000FBF776F882460191274A284B40463146F1
:10542000FBF76EF85246019BFBF764F882460B4689
:1054300002460591DDE90601FAF7BBFFDDE9062327
:10544000002688463046FBF755F85246059BFBF789
:1054500054F8024600F07EB90020B1F5801F07DA4B
:10546000352230466146FBF7E5FA06466FF0340018
:1054700000EB215024E00000FFFF1F00FFFF0F00A2
:105480000000F03F0000F07F0000404301FCFFFF00
:10549000B21B00000000F0FF0000F0BF0000E04180
:1054A0000000F043FFFFEF3F5555D53F0000E03FC0
:1054B0004715F73FFE822B6544DF5DF80BAE543E87
:1054C000A0F2FF300190C1F3130040F07F6141F082
:1054D00040510291FE498842D8BF002004DDFD49B9
:1054E0008142C8BF012001DD0D9008E000200D9031
:1054F0000198401C01900298A0F58010029002993A
:10550000F54878440B910D9900EBC100D0E90023D8
:105510000F9330460A920B99FAF7ECFFCDE906019A
:10552000DDE90A2130460F9BFAF743FF02460B469E
:105530000020EA49FBF756F8059102460B46009019
:10554000DDE90601FAF7DCFF1490E5488A464FF0E2
:10555000000878440299006812904FF0005040EA29
:1055600061010D980F9B01EB804000F5002109912E
:105570000A9A1298FAF7BEFF32460B9BFAF7BDFF64
:1055800042465346FAF7BCFF064602914046514652
:10559000099B129AFAF7B4FFDDE90623FAF7ADFF8B
:1055A0003246029BFAF7A6FF059B009AFAF7A8FF7E
:1055B0000091149A0490534610461946FAF7A0FF3A
:1055C00006460246C7480B46029106217844FEF77C
:1055D00095FDCDE90510029B324610461946FAF7B3
:1055E0008FFFDDE90532FAF78BFF0591064653463A
:1055F00040461946149AFAF7DCFE009B049AFAF723
:105600007FFF3246059BFAF7D4FECDE905104246EE
:10561000534610461946FAF773FF0022B24B029127
:105620000A90FAF7C6FEDDE90532FAF7C2FE0E4629
:105630004246AD4B4046FAF75DFF029B0A9AFAF7E5
:1056400059FFDDE90532FAF758FF424602910A9008
:10565000334610465146FAF753FFCDE9060153464B
:10566000149A02990A98FAF74BFF8A460290334639
:10567000424600990498FAF743FF5346029AFAF714
:1056800098FE82460B4602460591DDE90601FAF7CF
:1056900090FEDDE90623002088460646FAF72AFF39
:1056A0005246059BFAF729FF824609914FF0604266
:1056B0008E4B30464146FAF723FF049006918C4A00
:1056C0008A4B50460999FAF71BFF82460291894A94
:1056D000894B30464146FAF713FF5246029BFAF7D0
:1056E00068FE864B7B440D9A03EBC203D3E900238B
:1056F000FAF75FFE0E9007910198FBF7B2F905915A
:10570000DDE9061382460E9A0498FAF752FE7C4AA7
:105710007A440D9B02EBC303D3E90023009302926A
:10572000FAF747FE5246059BFAF743FE00268846E5
:1057300052463046059BFAF7DDFE009B029AFAF7C7
:10574000D9FE069B049AFAF7D5FE079B0E9AFAF744
:10575000D4FE024600200B46029038462946FAF74E
:10576000CFFE824601912B4638461946029AFAF737
:10577000C1FE32464346FAF7C3FE5246019BFAF792
:1057800018FE07468A463246434629460298FAF7EB
:10579000B7FE05460E463A465346FAF70AFE594A00
:1057A0008846914221DBA8EB020353EA000210D1A4
:1057B0002A463346FAF79EFECDE90401524A534B7E
:1057C00038465146FAF7F5FDDDE90423FBF772F997
:1057D00021D20220FEF718FDFEF7F6FC0A4621460C
:1057E00018B062F31E01BDE8F08D494B28F000426D
:1057F0009A4210D3474A08EB020353EA00027FF4AF
:10580000C6AD2A463346FAF775FE3A465346FBF7CD
:1058100051F97FF6BCAD0022019228F000403E49CC
:105820003E4A01EB2051824223DA481C4FF480119A
:1058300021FA00F040443A4AC0F30A517A44394B05
:10584000A1F2FF31CB4020EA0303C0F3130040F480
:105850008010C1F11401C84012680190B8F1000F26
:10586000BCBF4042019028463146FAF743FE054648
:105870000E462A46334638465146FAF79AFD4FF00F
:1058800000084246284B40460591FAF739FECDE91B
:105890000601264A264B40460599FAF731FE00914B
:1058A00002902A46334640460599FAF723FE3A46C7
:1058B0005346FAF722FE1F4A1F4BFAF721FE009BC0
:1058C000029AFAF776FD0746884602460B4635E00F
:1058D0008E9803007AB60B00FA1700000000F03F24
:1058E00032180000601700000000084009C7EE3FB2
:1058F000FD033ADCF5015B14E02F3EBE38160000D4
:10590000FC15000000009040FE822B654715973C77
:1059100000CC904000346F3F01FCFFFF0000E03FEF
:1059200048150000FFFF0F00432EE63F396CA80C1E
:10593000615C20BEEF39FAFE422EE63FDDE906014A
:10594000FAF737FDDDE9062305460E46FAF7D2FDE4
:105950003A464346FAF7D1FD0F462A4633460090B1
:1059600010461946FAF7CCFD824602462E48884674
:105970000B4605217844FEF7C1FB52464346FAF731
:10598000BFFD2A463346FAF7B8FD80468A463B46B5
:1059900028463146009AFAF7B3FD3B46009AFAF7DB
:1059A00008FD0691009000224FF08043404651468A
:1059B000FAF7A0FD0F460C90424653462846314662
:1059C000FAF79EFD3B460C9AFAF70CFE069B009AEE
:1059D000FAF790FD2A463346FAF78CFD0022134B66
:1059E000FAF78BFD054601980E4601EB00510815AC
:1059F000002810DC28463146019AFBF71BF8FEF719
:105A000065FB042808BFFEF7E7FB28463146019AEC
:105A1000FBF710F805460B4618B02A4658462146B3
:105A2000BDE8F04DFAF76CBDE81300000000F03F50
:105A30002DE9F04106460F46FBF7B9F8041E0D4666
:105A400018BF0120284320F00040C0F17F6000F122
:105A5000E040C00F0ED0301C18BF0120384320F0AA
:105A60000040C0F17F6000F1E040C00F04BF0120A2
:105A7000FEF7CAFB20462946BDE8F0810000000081
:105A800000000000000000000000000000101010E6
:105A900010101010101000001010000000006C6CAE
:105AA0002424000000000100000000000024242441
:105AB00024FE48484848FC909090900000103C54C8
:105AC0009290503814121292547810000000225C08
:105AD00094A8481010242A5254880000000030482E
